:100000000C9462000C948A000C948A000C948A0070
:100010000C948A000C948A000C948A000C948A0038
:100020000C948A000C948A000C948A000C94C802E8
:100030000C948A000C948A000C948A000C948A0018
:100040000C94D0040C948A000C948A000C948A00BE
:100050000C948A000C948A000C948A000C948A00F8
:100060000C948A000C948A000000000024002700F1
:100070002A0000000000250028002B0000000000DE
:1000800023002600290004040404040404040202DA
:100090000202020203030303030301020408102007
:1000A0004080010204081020010204081020000012
:1000B0000007000201000003040600000000000029
:1000C00000008C0011241FBECFEFD8E0DEBFCDBFF3
:1000D00011E0A0E0B1E0EAE5FEE002C005900D927B
:1000E000A030B107D9F711E0A0E0B1E001C01D9246
:1000F000A435B107E1F710E0C4ECD0E004C02297CA
:10010000FE010E942707C23CD107C9F70E94C10423
:100110000C942B070C940000EF92FF920F931F9307
:1001200080E091E00E94840183E091E00E948401DC
:1001300086E091E00E94840189E091E060E078E04F
:1001400044E050E026E030E005E010E0E7E0EE2E8D
:10015000F12C0E9486041F910F91FF90EF9008955B
:10016000809123019091240103970CF0B1C086E0A7
:1001700091E06DE770E00E94DA0160EA7FE080E0E4
:1001800090E00E94260583E091E064EB70E00E941D
:10019000DA0160EA7FE080E090E00E94260580E0DE
:1001A00091E064EB70E00E94DA0160EA7FE080E0B9
:1001B00090E00E94260589E091E060E072E00E94F4
:1001C000240460EA7FE080E090E00E94260586E05B
:1001D00091E063E87FEF0E94DA0160EA7FE080E06F
:1001E00090E00E94260583E091E06CE47FEF0E949E
:1001F000DA0160EA7FE080E090E00E94260580E07E
:1002000091E06CE47FEF0E94DA0160EA7FE080E039
:1002100090E00E94260586E091E064E670E00E948E
:10022000DA0160EA7FE080E090E00E94260583E04A
:1002300091E064EB70E00E94DA0160EA7FE080E028
:1002400090E00E94260580E091E064EB70E00E945F
:10025000DA0160EA7FE080E090E00E94260589E014
:1002600091E060E07EEF0E94240460EA7FE080E09D
:1002700090E00E94260580E091E066EA7FEF0E9410
:10028000DA0160EA7FE080E090E00E94260583E0EA
:1002900091E066EA7FEF0E94DA0160EA7FE080E0A9
:1002A00090E00E94260586E091E063E87FEF0E94DF
:1002B000DA0160EA7FE080E090E00E94260580910C
:1002C00023019091240101969093240180932301AE
:1002D000089580E091E06AE070E00E94C10283E04E
:1002E00091E069E070E00E94C10286E091E068E080
:1002F00070E00E94C10289E091E045E050E060E0DA
:1003000070E00E9486030895FC01809125018C30E5
:1003100090F480838F5F80932501815090E0FC01F1
:10032000EE0FFF1FE80FF91FEA5DFE4F88EB9BE021
:100330009283818308958FEF80830895FC0120814B
:100340002C30B8F58181992787FD909548E850E0D9
:10035000481B590B440F551F440F551F6417750751
:1003600084F08281992787FD909548E552E0481BEB
:10037000590B440F551F440F551F641775070CF494
:10038000AB0142505040CA01AA2797FDA095BA2F51
:10039000880F991FAA1FBB1F4FB7F89430E0F901CF
:1003A000EE0FFF1FE20FF31FEA5DFE4F9283818382
:1003B0004FBF0895AF92BF92CF92DF92EF92FF921C
:1003C0000F931F93CF93DF93EC019B0182E0603288
:1003D00078070CF048C077FF03C020E030E005C08C
:1003E000653B710514F024EB30E000D000D0B9017A
:1003F000882777FD8095982F2981332727FD309511
:10040000E8E8AE2EB12CA21AB30AAA0CBB1CAA0CA7
:10041000BB1CCC24B7FCC094DC2CEA81FF27E7FD91
:10042000F09528E532E02E1B3F0B220F331F220FE1
:10043000331F442737FD4095542FEDB7FEB7218376
:1004400032834383548320E030E040E050E004EB0B
:10045000E02EF12C012D112D0E944D069B010F90D5
:100460000F900F900F90CE01B9010E949E01DF9175
:10047000CF911F910F91FF90EF90DF90CF90BF90A1
:10048000AF900895CF92DF92EF92FF921F93CF9398
:10049000DF93EC01162F7A01690188818C3008F016
:1004A00064C0862F61E00E94BA05888190E0FC015B
:1004B000EE0FFF1FE80FF91FEA5DFE4F1F738081EB
:1004C000807C812B808380E292E08E199F0964E01A
:1004D00070E00E94C106698380E699E08C199D094D
:1004E00064E070E00E94C1066A83A8818A2F6CE0F4
:1004F0000E94B506682F70E0AB01440F551F460FF0
:10050000571F440F551F440F551F20E030E0C9010D
:10051000840F951FFC01EE0FFF1FE80FF91FEA5D26
:10052000FE4F808186FD15C02F5F3F4F2C30310577
:1005300071F724C01092800082E0809381001092B5
:10054000850010928400B19A80916F008260809340
:100550006F008A2F90E0FC01EE0FFF1FE80FF91FDC
:10056000EA5DFE4F8081806480838881DF91CF9136
:100570001F91FF90EF90DF90CF900895672BD1F2FD
:10058000E8CF40E252E020E639E00E9442020895BE
:100590001F920F920FB60F9211242F933F934F93F8
:1005A0005F936F937F938F939F93AF93BF93EF93DB
:1005B000FF9380914A0187FF05C010928500109239
:1005C00084002BC020914A01332727FD309580916C
:1005D000250190E02817390704F580914A019927F1
:1005E00087FD9095FC01EE0FFF1FE80FF91FEA5DF4
:1005F000FE4F808186FF11C080914A01992787FDB7
:100600009095FC01EE0FFF1FE80FF91FEA5DFE4F0A
:1006100080818F7360E00E94F90580914A018F5FAD
:1006200080934A0120914A01332727FD309580911C
:10063000250190E0281739070CF04EC080914A013F
:100640008C300CF049C0209184003091850080915D
:100650004A01992787FD9095FC01EE0FFF1FE80FD7
:10066000F91FEA5DFE4F81819281280F391F309377
:1006700089002093880080914A01992787FD9095F1
:10068000FC01EE0FFF1FE80FF91FEA5DFE4F8081AE
:1006900086FF2BC080914A01992787FD9095FC0128
:1006A000EE0FFF1FE80FF91FEA5DFE4F80818F7389
:1006B00061E00E94F90519C080E49CE905C08091C1
:1006C000840090918500049690938900809388001F
:1006D0008FEF80934A0109C080918400909185003A
:1006E000049680549C4940F3EACFFF91EF91BF916B
:1006F000AF919F918F917F916F915F914F913F91BA
:100700002F910F900FBE0F901F901895CF92DF92F0
:10071000EF92FF920F931F936C017A018B01FC0102
:1007200020853185442737FD4095542F60E67AEEC9
:1007300080E090E00E94D406CA01B901A8019701A7
:100740000E94D406F60124833583468357831F9184
:100750000F91FF90EF90DF90CF9008950F931F932C
:10076000CF93DF93EC018B018A859B85029731F54E
:100770006130710589F06230710524F461157105ED
:1007800041F01CC06230710571F063307105B1F445
:100790000DC08E8560E002C08E8561E00E94F90583
:1007A000888961E009C08E8561E002C08E8560E0C5
:1007B0000E94F905888960E00E94F9058A859B8579
:1007C0000497E9F501301105A1F0023011051CF480
:1007D000012B41F034C002301105D1F00330110576
:1007E00071F51DC08E8561E00E94F905888960E081
:1007F00006C08E8560E00E94F905888961E00E944C
:10080000F9058A8961E00E94F9058C8960E015C0CC
:100810008E8560E00E94F905888961E006C08E85BA
:1008200061E00E94F905888960E00E94F9058A89E3
:1008300060E00E94F9058C8961E00E94F905DF9172
:10084000CF911F910F9108950F931F93CF93DF9333
:10085000EC011616170624F481E090E09983888352
:1008600077FF02C0198218828B0177FF46C010956E
:1008700001951F4F42C00E9418052E893F89488D5F
:10088000598D621B730B840B950B2C813D814E811E
:100890005F81621773078407950768F30E94180544
:1008A0006E8B7F8B888F998F888199812C853D8570
:1008B000019761F42F5F3F4F3D872C87888599858D
:1008C0002817390771F41D861C860BC0232B21F4D1
:1008D000888599859D878C878C859D8501979D87C7
:1008E0008C87015010408C859D8564E070E00E94EB
:1008F000C106BC01CE010E94AE030115110509F02D
:10090000BACFDF91CF911F910F910895CF92DF92CF
:10091000EF92FF920F931F936C01842FF6011586BF
:1009200014861382128211821082168A178A108E00
:10093000118E7187608746875787318B208B138B89
:10094000028BF58AE48A61E00E94BA05F60180898B
:1009500061E00E94BA05F601828961E00E94BA0551
:10096000F601848961E00E94BA0584E090E0F60116
:10097000938782871F910F91FF90EF90DF90CF9028
:100980000895CF93DF930E947F050E946901C0E024
:10099000D0E00E94B0002097E1F30E940000F9CF60
:1009A0001F920F920FB60F9211242F933F938F93A4
:1009B0009F93AF93BF9380914F0190915001A0916D
:1009C0005101B0915201309153010196A11DB11D09
:1009D000232F2D5F2D3720F02D570196A11DB11D1E
:1009E0002093530180934F0190935001A0935101A4
:1009F000B093520180914B0190914C01A0914D0117
:100A0000B0914E010196A11DB11D80934B019093B1
:100A10004C01A0934D01B0934E01BF91AF919F91B6
:100A20008F913F912F910F900FBE0F901F901895AF
:100A30008FB7F89420914F013091500140915101AE
:100A4000509152018FBFB901CA0108959B01AC01B9
:100A50007FB7F89480914B0190914C01A0914D018A
:100A6000B0914E0166B5A89B05C06F3F19F0019685
:100A7000A11DB11D7FBFBA2FA92F982F8827860FE0
:100A8000911DA11DB11D62E0880F991FAA1FBB1FF8
:100A90006A95D1F7BC012DC0FFB7F89480914B0146
:100AA00090914C01A0914D01B0914E01E6B5A89BEB
:100AB00005C0EF3F19F00196A11DB11DFFBFBA2F70
:100AC000A92F982F88278E0F911DA11DB11DE2E03F
:100AD000880F991FAA1FBB1FEA95D1F7861B970B9A
:100AE000885E9340C8F221503040404050406851E9
:100AF0007C4F211531054105510571F60895789413
:100B000084B5826084BD84B5816084BD85B5826012
:100B100085BD85B5816085BDEEE6F0E080818160B0
:100B20008083E1E8F0E010828081826080838081B0
:100B300081608083E0E8F0E0808181608083E1EB88
:100B4000F0E0808184608083E0EBF0E08081816070
:100B50008083EAE7F0E08081846080838081826026
:100B6000808380818160808380818068808310920F
:100B7000C1000895CF93DF93482F50E0CA018656F5
:100B80009F4FFC0134914A575F4FFA0184918823AB
:100B900069F190E0880F991FFC01E859FF4FA5917A
:100BA000B491FC01EE58FF4FC591D491662351F4E6
:100BB0002FB7F8948C91932F909589238C938881EB
:100BC00089230BC0623061F42FB7F8948C91932F76
:100BD000909589238C938881832B88832FBF06C0AF
:100BE0009FB7F8948C91832B8C939FBFDF91CF910B
:100BF0000895482F50E0CA0182559F4FFC0124916F
:100C0000CA0186569F4FFC0194914A575F4FFA01E3
:100C10003491332309F440C0222351F1233071F081
:100C2000243028F42130A1F0223011F514C02630F0
:100C3000B1F02730C1F02430D9F404C08091800095
:100C40008F7703C0809180008F7D8093800010C0DB
:100C500084B58F7702C084B58F7D84BD09C0809133
:100C6000B0008F7703C08091B0008F7D8093B0007B
:100C7000E32FF0E0EE0FFF1FEE58FF4FA591B49168
:100C80002FB7F894662321F48C919095892302C0A4
:100C90008C91892B8C932FBF08952F923F924F9266
:100CA0005F926F927F928F929F92AF92BF92CF92FC
:100CB000DF92EF92FF920F931F93DF93CF93CDB705
:100CC000DEB73B014C0119012A016D897E898F89AC
:100CD000988D6A197B098C099D09621A730A840A26
:100CE000950AA40193010E949606E218F3080409EC
:100CF0001509A80197010E94D4062A0D3B1D4C1D21
:100D00005D1DB901CA01CF91DF911F910F91FF9035
:100D1000EF90DF90CF90BF90AF909F908F907F909B
:100D20006F905F904F903F902F900895629FD001F9
:100D3000739FF001829FE00DF11D649FE00DF11D96
:100D4000929FF00D839FF00D749FF00D659FF00D45
:100D50009927729FB00DE11DF91F639FB00DE11D32
:100D6000F91FBD01CF0111240895991B79E004C03A
:100D7000991F961708F0961B881F7A95C9F78095DA
:100D8000089597FB092E07260AD077FD04D027D0B7
:100D900006D000201AF4709561957F4F0895F6F7FC
:100DA000909581959F4F089597FB092E05260ED0AB
:100DB00057FD04D028D00AD0001C38F45095409537
:100DC000309521953F4F4F4F5F4F0895F6F790951F
:100DD0008095709561957F4F8F4F9F4F0895AA1B07
:100DE000BB1B51E107C0AA1FBB1FA617B70710F016
:100DF000A61BB70B881F991F5A95A9F78095909548
:100E0000BC01CD010895A1E21A2EAA1BBB1BFD0156
:100E10000DC0AA1FBB1FEE1FFF1FA217B307E407D9
:100E2000F50720F0A21BB30BE40BF50B661F771F31
:100E3000881F991F1A9469F7609570958095909511
:100E40009B01AC01BD01CF010895EE0FFF1F05907E
:0A0E5000F491E02D0994F894FFCF0F
:00000001FF
